:1012B5000E0A407924301912027800108906C740B9
:04117B008E338F34EC
:10117F00E4F535F536F537F538D3E5349400E53336
:10118F00648094804079AC35AD36EC120A038F4001
:10119F008E3F8D3E8C3D7F007E007D007C40120F88
:1011AF00CAC004C005C006C007AE33AF347C007D93
:1011BF000A120C60EC120A03D003D002D001D00047
:1011CF001208F8C004C005C006C007AC37AD38EC34
:1011DF00120A03D003D002D001D000120807120A5E
:1011EF003C8E378F380536E53670020535AE33AF96
:1011FF00347C007D0A120C608E338F34021188AE5E
:03120F0037AF38BE
:0112120022B9
:0B129F00740A2FF8E6F5807FB87E0B84
:0B12AA00EF1FAC0670011E4C70F62216
:100E9D00D2A1D2A0A297E433752100F522A296E447
:100EAD0033752300F524A295E433752500F526A2AC
:100EBD0094E433752700F528A293E433752900F5E2
:100ECD002AA292E433752B00F52CA291E433752DF3
:100EDD0000F52EA290E433752F00F530E4F531F5D1
:100EED0032AE23AF24EE3395E0FDFC7B407A4279A0
:100EFD000F7800120C96C006C007AE21AF22EE335C
:100F0D0095E0FDFC7B807A9679987800120C96D04E
:100F1D00E02FFFD0E03EFEC006C007AE25AF26EEA7
:100F2D003395E0FDFC7BA07A8679017800120C9652
:100F3D00D0E02FFBD0E03EFAAE27AF287C277D1006
:100F4D00120C4EEF2BFBEE3AFAAE29AF2A7C037D45
:100F5D00E8120C4EEF2BFBEE3AFAAE2BAF2C7C00C9
:100F6D007D64120C4EEF2BFBEE3AFAAE2DAF2E7DBB
:100F7D000A120C4EEF2BFFEE3AFEE5302FF532E55F
:100F8D002F3EF531AF32FE12117B8E088F097C009A
:100F9D007D0A120C60AB07AA06AE08AF097C007D76
:100FAD000A120C608D828C83C2A0AF0312129FD2E5
:0D0FBD00A0C2A1AF8212129FD2A1020EA10C
:10080000020AA8E86480F8E933E83360110460F074
:10081000ED33EC337009E8FCE9FDEAFEEBFF22045E
:1008200060DED3EB9FEA9EE99DE8C2E78CF0C2F759
:1008300095F0400CE8CCF8E9CDF9EACEFAEBCFFB25
:10084000120A7385D0F05804700320D5B3E8047001
:10085000075002B2D5020AB292D5EC0460F7E4CC9C
:10086000C0E0C398F8603B94186008400DD0E0FBEE
:10087000020A8AE4FBFAC9FC8028E830E406E4C9ED
:10088000FBE4CAFCE830E305E4C9CACBFCE8540742
:100890006010F8C3E913F9EA13FAEB13FBEC13FC4D
:1008A000D8F130F52FC3E49CFCEF9BFFEE9AFEEDF0
:1008B00099FDD0E0FBEF4E4D4C701222DB03020A93
:1008C000AFEC2CFCEF33FFEE33FEED33FDED30E704
:1008D000EB020A8AEF2BFFEE3AFEED39FDD0E0FB8A
:1008E00050130BBB0003020AB2ED13FDEE13FEEF33
:0808F00013FFEC13FC020A8A5D
:1008F800EC4D6011E8497017ED33EC3304600DE4FA
:10090800FCFFFEFD22E933E8330470F8020AA8125E
:100918000A7358046009E4CC24815006285009025F
:100928000AB2284003020AAFC0E0EB4A7044B9801B
:1009380006D0E0FB020A9EEF4E701CBD8008EBFF5C
:10094800EAFEE9FD80EBE98DF0A4FEE5F00209E19D
:10095800E9CDF9EAFEEBFFEF89F0A4FCE5F0CE89DA
:10096800F0A42EFFE435F0CD89F0A42DFEE435F097
:100978008067EF4E7005BD80D780C3EF8BF0A4ACC5
:10098800F0EE8BF0A42CFCE435F0F8EF8AF0A42C00
:10099800E5F038FCE433CB8DF0A42CFCE5F03BF813
:1009A800EE8AF0A42CFCE5F038F8E433CF89F0A403
:1009B8002CFCE5F038CF3400CE89F0A42FFFE5F009
:1009C8003EFEE433C98DF0A42EFEE5F039CD8AF061
:1009D800A42FFFE5F03EFEE43DFD33D0E0FB5007D9
:1009E8000BBB000F020AB2EC2CFCEF33FFEE33FE18
:0609F800ED33FD020A8A46
:1009FE0075F020800E75F010800575F0087D007E74
:100A0E00007F003392D530D503120CE5EC33401045
:100A1E00EF33FFEE33FEED33FDEC33FCD5F0ED227C
:0E0A2E00E5F0247EA2D513CC92E7CDCEFF22B8
:100A3C00EDD2E7CD33EC3392D524814006E4FFFEB2
:100A4C00FDFC22FCE4CFCECDCC24E0501174FF8011
:100A5C00EDC3CC13CCCD13CDCE13CECF13CF0470AE
:070A6C00F030D5DE020CE5BD
:100FCA008F3C8E3B8D3A8C39E4FFFE7D807C3FABB3
:100FDA003CAA3BA93AA839120AD77009AF3CAE3BE2
:100FEA00AD3AAC3922AF3CAE3BAD3AAC39120ABD90
:100FFA00FBAF40AE3FAD3EAC3D120ABDFFBF01089C
:10100A00E4FFFE7D807C3F22EF64046022EB6404EF
:10101A00601DBB0127E4FFFEFDFCAB40AA3FA93ED1
:10102A00A83D120AD760084006E4FFFEFDFC2274C0
:10103A00FFF540F53FF53EF53D0210D8E4F541F5E0
:10104A0042FFFEFDFCAB3CAA3BA93AA839120AD7DB
:10105A00504BAF40AE3FAD3EAC3D120A3C8E418F85
:10106A0042AC41AD42EC120A03C8ECC8C9EDC9CA88
:10107A00EECACBEFCBAF40AE3FAD3EAC3D1208035C
:10108A00E4FBFAF9F8120AD770A5AF3CAE3BAD3AC9
:10109A00AC39120B508F3C8E3B8D3A8C39AF3CAE3B
:1010AA003BAD3AAC39120D9CAB40AA3FA93EA83DD4
:1010BA001208F81211198F408E3F8D3E8C3DE54281
:1010CA0030E00B120B508F408E3F8D3E8C3DAF406F
:0710DA00AE3FAD3EAC3D222C
:100A7300E9D2E7C933E833F892D5EDD2E7CD33ECC9
:070A830033FC5002B2D52242
:100A8A00EC30E7100FBF000C0EBE00080DBD0004CD
:100A9A000BEB6014A2D5EB13FCED92E7FD2274FF79
:100AAA00FCFDFEFF22E480F8A2D574FF13FC7D80D2
:030ABA00E480EFE6
:100ABD00ED33EC33601004700FED547F700574024C
:0A0ACD0092E0227404220422E422C5
:100AD70074F8CC6480CCC86480C8F58204604FC3C6
:100AE700EB9FF5F0EA9E42F0E99D42F0E89C45F065
:100AF700603C501DE5825FFFE582D313CB5BCBF4EF
:100B07002B5582FB50280ABA002409B90020088017
:100B17001DE5825BFBE582D313CF5FCFF4C3132FB1
:100B27005582FF50090EBE00050DBD00010CC3EB39
:100B37009FF5F0EA9E42F0E99D42F0E89C45F0609F
:090B470007CC4820E701B3EC22C1
:100B5000ED33EC33600A047003BD8004ECB2E7FCB3
:010B60002272
:1010E10033DA929E35B16011377FE5FE392184896B
:1010F1003AAEC3FF3C1D955B3D6358473E75FDF01D
:101101003F3172183F800000C2D5020AB2020AA81C
:10111100BD80FA50F3020AAFED33EC330460F17B8A
:101121003B7AAA79B8783F1208F8ED33EC3392D5BF
:10113100247B5011A2D570DB500BED448024045068
:1011410004A2D580CEEFFBEEFAEDF9ECF8120A3CE1
:10115100EFF582F404FC120A08120807C08290100D
:10116100E17409120C10ED33CC33D0F092D525F097
:0A117100A2D57001C313CC13FD22B8
:100D68003E9248DA3ECCCCCD3F2AAAAB40000000E8
:100D78003F8000003F9837F03FB504F33FD744FC6D
:100D88003E3172173EB172173F0515913EDE5BD9B1
:100D9800D2008002C200EDD2E7F8CD33EC33047004
:100DA8000BBD800592D5020AB2020AA840FBD314F3
:100DB80060F2F5F07C3FEE7A00C39496C8948B40BD
:100DC800230AC89469C8941A401A0AC89468C8942F
:100DD8001F40110AC8945AC89425400805F07A00A3
:100DE800CDC2E7CDC0F08C438D448E458F46EA23B3
:100DF80023C0E02478F582E4340DF583120D031244
:100E08000807ECC0E0EDC0E0EEC0E0EFC0E0120C77
:100E1800F3A843A944AA45AB46120803D0E0FBD087
:100E2800E0FAD0E0F9D0E0B2E7F8120B648C438D19
:100E3800448E458F46900D687403120C01A843A98F
:100E480044AA45AB461208F8D0E0600F2484F58226
:100E5800E4340DF583120D031208078C438D448E7C
:100E6800458F46D0E0C3947FFDE49400FC120A034A
:100E78007B187A727931783F1208F8A843A944AAF6
:100E880045AB4612080730000B7BD97A5B79DE78D0
:050E98003E1208F822E3
:100B6100020AB2EC5D046005E859047003020AA8A8
:100B7100120A73580460F6EC4860F2EC7004FDFE52
:100B8100FF22C860DB2481C85009C3986002500667
:100B9100020AAF9850CAF582E9294B4A7005AB8227
:100BA100020A9E75F0007C1A7880C3EF9BEE9AEDE5
:100BB10099400DC3EF9BFFEE9AFEED99FDE842F0DF
:100BC100DC23ACF0D0E0FFD0E0FED0E0FDAB822032
:100BD100E7101BEB60BAEC2CFCEF33FFEE33FEEDBC
:100BE10033FD020A8AE803F830E705C0F075F0002A
:100BF100EF2FFFEE33FEED33FD40B830E7C280AAA0
:100C0100C0E0EFFBEEFAEDF9ECF81208F8D0E0F5F0
:100C1100F0EFFBEEFAEDF9ECF8120CF3A3A3A3A3AA
:100C2100E8C0E0E9C0E0EAC0E0EBC0E0C0F01208D3
:100C3100F8120D03A3A3A3A3120807D0F0D0E0FB81
:0D0C4100D0E0FAD0E0F9D0E0F8D5F0D422F0
:03000000021213D6
:0C121300787FE4F6D8FD75814602125A7F
:100C4E00EF8DF0A4A8F0CF8CF0A428CE8DF0A42EBA
:020C5E00FE2274
:100C6000C2D5EC30E709B2D5E4C39DFDE49CFCEEAF
:100C700030E715B2D5E4C39FFFE49EFE120D13C307
:100C8000E49DFDE49CFC8003120D1330D507C3E402
:060C90009FFFE49EFE221E
:100C9600E88FF0A4CC8BF0A42CFCE98EF0A42CFCFD
:100CA6008AF0EDA42CFCEA8EF0A4CDA8F08BF0A47B
:100CB6002DCC3825F0FDE98FF0A42CCD35F0FCEBDA
:100CC6008EF0A4FEA9F0EB8FF0A4CFC5F02ECD399F
:0F0CD600FEE43CFCEAA42DCE35F0FDE43CFC220C
:0E0CE500C3E49FFFE49EFEE49DFDE49CFC2220
:100CF300E493FC740193FD740293FE740393FF2247
:100D0300E493F8740193F9740293FA740393FB2246
:10121F00020E9DE493A3F8E493A34003F68001F23A
:10122F0008DFF48029E493A3F85407240CC8C333D0
:10123F00C4540F4420C8834004F456800146F6DF9F
:10124F00E4800B01020408102040809012B5E47E68
:10125F00019360BCA3FF543F30E509541FFEE49394
:10126F00A360010ECF54C025E060A840B8E493A35B
:10127F00FAE493A3F8E493A3C8C582C8CAC583CA86
:10128F00F0A3C8C582C8CAC583CADFE9DEE780BE3E
:0112C5000028
:100D1300BC000BBE0029EF8DF084FFADF022E4CCC4
:100D2300F875F008EF2FFFEE33FEEC33FCEE9DEC8D
:100D3300984005FCEE9DFE0FD5F0E9E4CEFD22EDD3
:100D4300F8F5F0EE8420D21CFEADF075F008EF2F1D
:100D5300FFED33FD4007985006D5F0F222C398FD0E
:050D63000FD5F0EA22AB
:00000001FF
